:100000000C9466000C9478000C9478000C947800A2
:100010000C9478000C9478000C9478000C94780080
:100020000C9478000C9478000C9478000C94780070
:100030000C9478000C9478000C9478000C94780060
:100040000C9478000C9478000C9478000C94780050
:100050000C9478000C9478000C9478000C94780040
:100060000C9478000C9478000C9478000C94780030
:100070000C9478000C9478000C9478000C94780020
:100080000C9478000C9478000C9478000C94780010
:100090000C9478000C9478000C9478000C94780000
:1000A0000C9478000C9478000C9478000C947800F0
:1000B0000C9478000C9478000C9478000C947800E0
:1000C0000C9478000C9478000C94780011241FBED6
:1000D000CFEFD8E0DEBFCDBF21E0A0E0B1E001C0AE
:1000E0001D92A130B207E1F70E9495000C949E008A
:1000F0000C94000020EA3FE021503109E9F7019714
:10010000C9F708953F9A4798109200010895809189
:100110000001811105C0479A81E080930001089594
:1001200088B118B81092000108950E9482000E94C0
:10013000870088EE93E00E947A00F9CFF894FFCF11
:00000001FF
