:100000000C9466000C9483000C9483000C94830081
:100010000C9483000C9483000C9483000C94830054
:100020000C9483000C9483000C9483000C94830044
:100030000C9483000C9483000C9483000C94830034
:100040000C9483000C9483000C9483000C94830024
:100050000C9483000C9483000C9483000C94830014
:100060000C9483000C9483000C9483000C94830004
:100070000C9483000C9483000C9483000C948300F4
:100080000C9483000C9483000C9483000C948300E4
:100090000C9483000C9483000C9483000C948300D4
:1000A0000C9483000C9483000C9483000C948300C4
:1000B0000C9483000C9483000C9483000C948300B4
:1000C0000C9483000C9483000C94830011241FBEB5
:1000D000CFEFD8E0DEBFCDBF11E0A0E0B1E0ECE6AD
:1000E000FBE002C005900D92A631B107D9F721E0DF
:1000F000A6E1B1E001C01D92A636B207E1F70E9469
:100100008A000C94B4050C940000FC012181622B40
:100110006183089540E855E260E070E088EC90E08B
:100120000E942F0260E880E890E00E9485000E9413
:100130009C0080E090E00895CF92DF92EF92FF92D2
:100140000F931F93CF93DF9300D01F92CDB7DEB7ED
:1001500062E083E290E00E94850044E45CEA60E0B3
:1001600070E088ED90E00E941F0185B18D7F85B918
:1001700085E08A95F1F7000085B1826085B910E0CD
:10018000FE0131966F01E12CF12C01E021E030E01D
:1001900040E050E063E488ED90E00E94C0011F5F02
:1001A000882341F01A3030F4EFE3FCE93197F1F79E
:1001B00000C00000882311F01A3010F39E012F5F59
:1001C0003F4F41E050E063E488ED90E00E9473010E
:1001D0001F5F882341F01A3030F4EFE3FCE93197D8
:1001E000F1F700C000001A3010F48111E7CF1B8135
:1001F0000E9478021F921F9320E031E03F932F93DB
:100200009F938F930E94CA020E94780240E0BC0133
:1002100088EC90E00E947B020F900F900F900F905F
:100220000F900F9080E00F900F900F90DF91CF9183
:100230001F910F91FF90EF90DF90CF900895CF9294
:10024000DF92EF92FF921F93CF93DF93EC019A011D
:10025000AB0160E074E284EF90E00E94A8026901C3
:100260007A0180E1C81AD108E108F108C701B60196
:100270002EEF31E040E050E00E94A8022115310548
:1002800069F02430310570F02031310578F02034E8
:10029000310500F513E020E430E00BC010E021E070
:1002A00030E007C011E024E030E003C012E020E1BC
:1002B00030E0C901A0E0B0E09C01AD01220F331F86
:1002C000441F551FC701B6010E94A8022883198345
:1002D00080E001C081E0DF91CF911F91FF90EF900E
:1002E000DF90CF900895FC0166230CF441C070E0CC
:1002F000660F771F6160638384EA84838481882327
:10030000ECF78181887F883011F0803199F5638323
:1003100084E8848384818823ECF78181887F80341A
:1003200059F560E070E01FC04130510519F484E8D0
:10033000848302C084EC848384818823ECF78181E8
:10034000887F803511F08835C9F49381D901A60FD3
:10035000B71F9C93883519F484E9848384814150C4
:1003600051096F5F7F4F41155105F1F680E0089507
:1003700082E0089583E0089583E0089583E008957E
:100380008F929F92AF92BF92CF92DF92EF92FF92A5
:100390000F93FC01A62FBA01A90185E2848380E0B6
:1003A00004C08F5F8F3F09F449C091819923CCF736
:1003B000AA0FA38380E004C08F5F8F3F09F440C081
:1003C00091819923CCF720E01EC0802F90E0019707
:1003D000821B9109880F991F880F991F880F991FF9
:1003E0004A015B0104C0B694A794979487948A95B8
:1003F000D2F7838290E003C09F5F9F3F19F1318164
:100400003323D4F72F5F201700F320E00EC0D6016E
:10041000A80FB91F8C91838380E003C08F5F8F3F4B
:1004200099F091819923D4F72F5F822F90E08E1558
:100430009F0568F384E9848380E007C08FEF05C0DF
:100440008FEF03C08FEF01C08FEF0F91FF90EF9000
:10045000DF90CF90BF90AF909F908F900895CF93F3
:10046000DF93EC01DB01CA0180589B47A14EBF4FCF
:10047000880F991FAA1FBB1F880F991FAA1FBB1F98
:10048000880F991FAA1FBB1F440F551F661F771F98
:10049000440F551F661F771F9A01AB01220F331FB0
:1004A000441F551F220F331F441F551FBC01CD0190
:1004B0000E94A802215031093D832C83188286E0D6
:1004C0008A8388E18983DF91CF910895FC0120E040
:1004D00030E090812F5F3F4F95FD03C0211531051E
:1004E000C1F7232B19F0668380E0089580E9089511
:1004F00086E191E00895EF92FF920F931F93CF93BF
:10050000DF937C018B01D42F411118C0FB01608166
:10051000C0E008C0C7010E946602CF5FF801EC0F7F
:10052000F11D60816111F6CF0CC0F801EC0FF11DD7
:100530006081C7010E946602CF5F01C0C0E0CD1795
:10054000A0F3DF91CF911F910F91FF90EF9008954D
:10055000A1E21A2EAA1BBB1BFD010DC0AA1FBB1FC7
:10056000EE1FFF1FA217B307E407F50720F0A21B39
:10057000B30BE40BF50B661F771F881F991F1A94A6
:1005800069F760957095809590959B01AC01BD01D0
:10059000CF010895AEE0B0E0E0EDF2E00C948B0501
:1005A0000D891E8986E08C831A8309838FEF9FE76C
:1005B0009E838D83AE01475E5F4F6F89788DCE013C
:1005C00001960E94EC02EF81F885E00FF11F108286
:1005D0002E96E4E00C94A705ABE0B0E0E2EFF2E089
:1005E0000C947D056C017B018A01FC011782168247
:1005F000838181FFCCC1CE0101963C01F60193813C
:10060000F70193FD859193FF81917F01882309F480
:10061000BAC1853239F493FD859193FF81917F01B1
:10062000853229F4B60190E00E94E304E7CF912CD3
:10063000212C312CFFE1F315D8F08B3279F038F40E
:10064000803279F08332A1F4232D20611DC08D32D8
:1006500061F0803369F4232D216016C0832D826000
:10066000382EE32DE4603E2E2AC0F32DF8601DC025
:1006700037FC2DC020ED280F2A3040F08E32B9F41F
:1006800036FC81C1232D2064322E19C036FE06C0EF
:100690008AE0989E200D1124922E11C0EAE02E9E31
:1006A000200D1124222EF32DF0623F2E08C08C362F
:1006B00021F4832D8068382E02C0883641F4F7017A
:1006C00093FD859193FF81917F018111B3CF982F85
:1006D0009F7D9554933028F40C5F1F4F9FE39983BF
:1006E0000DC0833631F0833771F0833509F059C07E
:1006F00021C0F801808189830E5F1F4F8824839475
:10070000912C530113C02801F2E04F0E511CF80147
:10071000A080B18036FE03C0692D70E002C06FEF8B
:100720007FEFC5010E94D8044C018201F32DFF77B1
:100730003F2E16C0280122E0420E511CF801A08075
:10074000B18036FE03C0692D70E002C06FEF7FEF0D
:10075000C5010E94CD044C01F32DF0683F2E8201AB
:1007600033FC1BC0822D90E088169906B0F4B601C8
:1007700080E290E00E94E3042A94F4CFF50137FC74
:10078000859137FE81915F01B60190E00E94E304FC
:1007900021102A9421E0821A91088114910471F7A2
:1007A000E8C0843611F0893641F5F80137FE07C0FC
:1007B00060817181828193810C5F1F4F08C06081CD
:1007C0007181072E000C880B990B0E5F1F4FF32DC4
:1007D000FF763F2E97FF09C09095809570956195A3
:1007E0007F4F8F4F9F4FF0683F2E2AE030E0A301EC
:1007F0000E941F05882E861845C0853731F4232DA9
:100800002F7EB22E2AE030E025C0932D997FB92E9D
:100810008F36C1F018F4883579F0B5C0803719F0FB
:10082000883721F0B0C0E92FE061BE2EB4FE0DC0C4
:10083000FB2DF460BF2E09C034FE0AC0292F2660AC
:10084000B22E06C028E030E005C020E130E002C052
:1008500020E132E0F801B7FE07C06081718182813A
:1008600093810C5F1F4F06C06081718180E090E032
:100870000E5F1F4FA3010E941F05882E8618FB2DB7
:10088000FF773F2E36FE0DC0232D2E7FA22E89141A
:1008900058F434FE0BC032FC09C0832D8E7EA82E86
:1008A00005C0B82CA32C03C0B82C01C0B92CA4FEE1
:1008B0000FC0FE01E80DF11D8081803321F49A2DD7
:1008C000997EA92E09C0A2FE06C0B394B39404C0B9
:1008D0008A2D867809F0B394A3FC11C0A0FE06C04F
:1008E000B21488F4280C922C9B180EC0B21460F439
:1008F000B60180E290E00E94E304B394F7CFB21413
:1009000018F42B1802C0982C212CA4FE10C0B6019C
:1009100080E390E00E94E304A2FE17C0A1FC03C0A4
:1009200088E790E002C088E590E0B6010CC08A2D0F
:10093000867859F0A1FE02C08BE201C080E2A7FCDC
:100940008DE2B60190E00E94E304891438F4B60108
:1009500080E390E00E94E3049A94F7CF8A94F30135
:10096000E80DF11D8081B60190E00E94E304811042
:10097000F5CF222009F442CEB60180E290E00E9439
:10098000E3042A94F6CFF6018681978102C08FEFA7
:100990009FEF2B96E2E10C949905FC0105906150C4
:1009A00070400110D8F7809590958E0F9F1F089585
:1009B000FC016150704001900110D8F7809590952E
:1009C0008E0F9F1F08950F931F93CF93DF93FB010B
:1009D000238121FD03C08FEF9FEF2CC022FF16C0A3
:1009E00046815781248135814217530744F4A08101
:1009F000B1819D012F5F3F4F318320838C932681EE
:100A000037812F5F3F4F3783268314C08B01EC0162
:100A1000FB010084F185E02D0995892BE1F6D801D1
:100A200016968D919C911797019617969C938E938D
:100A30001697CE01DF91CF911F910F910895FA0182
:100A4000AA27283051F1203181F1E8946F936E7F0D
:100A50006E5F7F4F8F4F9F4FAF4FB1E03ED0B4E0FE
:100A60003CD0670F781F891F9A1FA11D680F791F3F
:100A70008A1F911DA11D6A0F711D811D911DA11D50
:100A800020D009F468943F912AE0269F1124301960
:100A9000305D3193DEF6CF010895462F4770405DFB
:100AA0004193B3E00FD0C9F7F6CF462F4F70405DAA
:100AB0004A3318F0495D31FD4052419302D0A9F705
:100AC000EACFB4E0A6959795879577956795BA95FF
:100AD000C9F700976105710508959B01AC010A2EC5
:100AE00006945795479537952795BA95C9F7620F9C
:100AF000731F841F951FA01D08952F923F924F9240
:100B00005F926F927F928F929F92AF92BF92CF929D
:100B1000DF92EF92FF920F931F93CF93DF93CDB7A6
:100B2000DEB7CA1BDB0B0FB6F894DEBF0FBECDBF1E
:100B300009942A88398848885F846E847D848C84EF
:100B40009B84AA84B984C884DF80EE80FD800C81F8
:100B50001B81AA81B981CE0FD11D0FB6F894DEBFDB
:0C0B60000FBECDBFED010895F894FFCF4B
:100B6C0052656365697665642056616C75653A20DB
:060B7C002569210D0A00AD
:00000001FF
