:100000000C9466000C9483000C9483000C94830081
:100010000C9483000C9483000C9483000C94830054
:100020000C9483000C9483000C9483000C94830044
:100030000C9483000C9483000C9483000C94830034
:100040000C9483000C9483000C9483000C94830024
:100050000C9483000C9483000C9483000C94830014
:100060000C9483000C9483000C9483000C94830004
:100070000C9483000C9483000C9483000C948300F4
:100080000C9483000C9483000C9483000C948300E4
:100090000C9483000C9483000C9483000C948300D4
:1000A0000C9483000C9483000C9483000C948300C4
:1000B0000C9483000C9483000C9483000C948300B4
:1000C0000C9483000C9483000C94830011241FBEB5
:1000D000CFEFD8E0DEBFCDBF11E0A0E0B1E0E6EBAE
:1000E000F5E002C005900D92A030B107D9F721E0EC
:1000F000A0E0B1E001C01D92A030B207E1F70E947C
:100100008A000C94D9020C940000FC012181622B1E
:100110006183089540E855E260E070E088EC90E08B
:100120000E948D0240E85AE166E070E08CE490E0C5
:100130000E94130260E886E290E00E9485000E941F
:100140008C01FFCFAC0120E080E015C0FA01E20F86
:10015000F11D308190E0880F991F832714F499E8EE
:10016000892791E005C0880F12F439E883279F5F43
:100170009830C8F32F5F261748F30895CF92DF9287
:10018000EF92FF921F93CF93DF9300D000D000D067
:10019000CDB7DEB7803408F051C06A017B01682F0B
:1001A00060646A83AE014F5F5F4F8CE490E00E9411
:1001B0008302811145C010E029C0412F50E023E0A7
:1001C00030E0241B350B220F331F220F331F220F69
:1001D000331FC701B60104C096958795779567953B
:1001E0002A95D2F79A012F5F3F4FE2E0F0E0EC0F43
:1001F000FD1FE20FF31F6083AE014F5F5F4F8CE482
:1002000090E00E94830281111DC01F5F1430A8F28C
:1002100065E0CE0102960E94A200682F70E0660F92
:10022000771F6160AE014F5F5F4F8CE490E00E94EA
:1002300083028981882339F08CEF05C08FEF03C0DA
:100240008CEF01C08CEF26960FB6F894DEBF0FBE80
:10025000CDBFDF91CF911F91FF90EF90DF90CF90B6
:100260000895DF92EF92FF920F931F93CF93DF9346
:100270001F92CDB7DEB7D82E7B0110E0AE014F5FE5
:100280005F4F6FEF8CE490E00E948302811135C0D4
:100290001F5F8981982F882314F41111EFCF9923C0
:1002A00074F1F701808309810C77D9F0AE014F5FBB
:1002B0005F4F6FEF8CE490E00E9483020BEF22C04F
:1002C000AE014F5F5F4F6FEF8CE490E00E948302BE
:1002D0009981F701E10FF11D9083811112C01F5F19
:1002E00001C011E01D1560F3AE014F5F5F4F6FEF6E
:1002F0008CE490E00E94830205C00CEF03C00AEF7B
:1003000001C00CEF802F0F90DF91CF911F910F91C3
:10031000FF90EF90DF9008951F93CF93DF93CDB7B9
:10032000DEB727970FB6F894DEBF0FBECDBF60E1F2
:1003300083E290E00E94850085B1806185B910E07C
:100340000DC0AE01495F5F4F6FEF8CE490E00E94FB
:100350008302882311F01CEF5BC01F5F1A3088F303
:1003600085B18F7E85B940E050E0BA0180E00E94FF
:10037000BE0081113EC0BE016F5F7F4F81E00E94D1
:100380003101811138C089818130B9F585B1806131
:1003900085B985B18F7E85B94AEA51E060E070E0A9
:1003A00088E00E94BE00182F811129C0BE016E5F37
:1003B0007F4F85E00E9431018B3F29F48A8182FDC5
:1003C00005C01BEF25C081111CC001C081E0811157
:1003D00009C09A819130B9F49D8190FF16C09E8129
:1003E0009A3AA9F495B1906195B9813089F41DEEDE
:1003F0000FC01CEF0DC01CEF0BC01FEF09C01CEF9E
:1004000007C01FEE05C01FEE03C01EEE01C01FEEA9
:10041000812F27960FB6F894DEBF0FBECDBFDF91B8
:10042000CF911F9108951F93CF93DF93EC019A0111
:10043000AB0160E074E284EF90E00E94B70298E5BF
:100440009883223060F09CEF920F943040F090EF50
:10045000920F903120F090EC920F903418F481E0DC
:1004600089830BC0243040F088EF820F883020F061
:100470002052203208F042C0198218811870CC3402
:10048000D105F1F485B1806285B960E283E290E044
:100490000E94850011110AC085B18F7785B960E887
:1004A00083E290E00E94850081E029C085B18068E8
:1004B00085B960E883E290E00E94850081E01FC07A
:1004C0008EB188608EB968E08CE290E00E94850071
:1004D00011110AC08BB18F7B8BB960E489E290E087
:1004E0000E94850081E00BC08BB180648BB960E411
:1004F00089E290E00E94850081E001C08FEFDF91EA
:10050000CF911F910895FC01628391819923ECF7AB
:100510008281FA01808380E00895CF93DF93EC011C
:100520001882DB01CA01880F991FAA1FBB1F880F01
:10053000991FAA1FBB1F9C01AD01220F331F441F2F
:10054000551F220F331F441F551F60E074E284EFD4
:1005500090E00E94B702215031093D832C8386E050
:100560008A8388E1898380E0DF91CF910895A1E2B9
:100570001A2EAA1BBB1BFD010DC0AA1FBB1FEE1F1D
:10058000FF1FA217B307E407F50720F0A21BB30B68
:10059000E40BF50B661F771F881F991F1A9469F7E4
:1005A00060957095809590959B01AC01BD01CF0140
:0605B0000895F894FFCF4E
:00000001FF
