:100000000C9466000C9478000C9478000C947800A2
:100010000C9478000C9478000C9478000C94780080
:100020000C9478000C9478000C9478000C94780070
:100030000C9478000C9478000C9478000C94780060
:100040000C9478000C9478000C9478000C94780050
:100050000C9478000C9478000C9478000C94780040
:100060000C9478000C9478000C9478000C94780030
:100070000C9478000C9478000C9478000C94780020
:100080000C9478000C9478000C9478000C94780010
:100090000C9478000C9478000C9478000C94780000
:1000A0000C9478000C9478000C9478000C947800F0
:1000B0000C9478000C9478000C9478000C947800E0
:1000C0000C9478000C9478000C94780011241FBED6
:1000D000CFEFD8E0DEBFCDBF21E0A0E0B1E001C0AE
:1000E0001D92A030B207E1F70E94BD000C9464019C
:1000F0000C940000FC018181962F909589238183C7
:100100008081682B60830895CF93DF931F92CDB7D2
:10011000DEB7FC018081682369838981811181E0D8
:100120000F90DF91CF910895FC012181622B6183B3
:100130000895FC012281622B62830895FC01928163
:1001400060956923628308950E949E0008950E942D
:10015000990008951F93CF93DF93EC01162F0E940F
:100160009400612FCE010E949900612FCE010E9460
:10017000A700DF91CF911F910895CF93DF931F9236
:10018000CDB7DEB760E870E086E290E00E94AA009A
:1001900060E470E086E290E00E942A01198260E843
:1001A00070E086E290E00E94A70060E470E086E2E2
:1001B00090E00E942D010197C1F789818F5F8983AB
:1001C0008981813059F018F0823079F03CC060E8C4
:1001D00070E086E290E00E94A700E7CF60E870E060
:1001E00086E290E00E94A400E0CF60E870E086E242
:1001F00090E00E94A4002FEF81EE94E02150804017
:100200009040E1F700C0000060E870E086E290E016
:100210000E94A7002FEF87E893E121508040904093
:10022000E1F700C0000060E470E086E290E00E9428
:100230002D010197D1F6198260E870E086E290E026
:100240000E94A700B2CF60E870E086E290E00E94D2
:10025000A700ABCF0E947A000895EF92FF920F9310
:100260001F93CF93DF931F92CDB7DEB78C01F62E8D
:100270000E9484008983E980E1101CC02FEF8AE688
:1002800093E0215080409040E1F700C000006F2DC6
:10029000C8010E9484008983898181110CC06F2D5F
:1002A000C8010E948400898389818823C1F3EE24D8
:1002B000E39401C0E12C8E2D0F90DF91CF911F911F
:0C02C0000F91FF90EF900895F894FFCF8D
:00000001FF
