S01900004578706972656D656E74315F416C6F6F662E7372656369
S11300000C9466000C9470000C9470000C947000B6
S11300100C9470000C9470000C9470000C9470009C
S11300200C9470000C9470000C9470000C9470008C
S11300300C9470000C9470000C9470000C9470007C
S11300400C9470000C9470000C9470000C9470006C
S11300500C9470000C9470000C9470000C9470005C
S11300600C9470000C9470000C9470000C9470004C
S11300700C9470000C9470000C9470000C9470003C
S11300800C9470000C9470000C9470000C9470002C
S11300900C9470000C9470000C9470000C9470001C
S11300A00C9470000C9470000C9470000C9470000C
S11300B00C9470000C9470000C9470000C947000FC
S11300C00C9470000C9470000C94700011241FBEEA
S11300D0CFEFD8E0DEBFCDBF0E949C000C94380166
S11300E00C940000FC018181962F909589238183D3
S11300F08081682B60830895CF93DF931F92CDB7DF
S1130100DEB7FC018081682369838981811181E0E4
S11301100F90DF91CF910895FC012181622B6183BF
S11301200895FC012281622B62830895FC0192816F
S11301306095692362830895CF93DF931F92CDB7AF
S1130140DEB760E886E290E00E948C0060E486E21C
S113015090E00E94FE00198260E886E290E00E942E
S1130160910060E486E290E00E9401018130C9F7C9
S113017089818F5F89838981813051F018F08230C1
S113018069F036C060E886E290E00E949100E9CF11
S113019060E886E290E00E949600E3CF60E886E2A1
S11301A090E00E9496002FEF81EE94E02150804071
S11301B09040E1F700C0000060E886E290E00E9411
S11301C091002FEF87E893E1215080409040E1F7C0
S11301D000C0000060E486E290E00E9401018130EA
S11301E0E9F6198260E886E290E00E949100B9CFB6
S11301F060E886E290E00E949100B3CF0E94720012
S11302000895EF92FF920F931F93CF93DF931F9262
S1130210CDB7DEB78C01F62E0E947C008983E9807D
S1130220E1101CC02FEF8AE693E0215080409040FB
S1130230E1F700C000006F2DC8010E947C00898393
S1130240898181110CC06F2DC8010E947C008983B3
S113025089818823C1F3EE24E39401C0E12C8E2D1F
S11302600F90DF91CF911F910F91FF90EF90089520
S1070270F894FFCF2C
S9030000FC
