:100000000C9466000C9483000C9483000C94830081
:100010000C9483000C9483000C9483000C94830054
:100020000C9483000C9483000C9483000C94830044
:100030000C9483000C9483000C9483000C94830034
:100040000C9483000C9483000C9483000C94830024
:100050000C9483000C9483000C9483000C94830014
:100060000C9483000C9483000C9483000C94830004
:100070000C9483000C9483000C9483000C948300F4
:100080000C9483000C9483000C9483000C948300E4
:100090000C9483000C9483000C9483000C948300D4
:1000A0000C9483000C9483000C9483000C948300C4
:1000B0000C9483000C9483000C9483000C948300B4
:1000C0000C9483000C9483000C94830011241FBEB5
:1000D000CFEFD8E0DEBFCDBF11E0A0E0B1E0E6E9B0
:1000E000F3E002C005900D92A234B107D9F721E0E8
:1000F000A2E4B1E001C01D92A239B207E1F70E946B
:1001000095000C94C9010C940000FC012181622B24
:1001100061830895FC012281622B62830895FC01B2
:1001200092816095692362830895CF93DF93CDB761
:10013000DEB7E3970FB6F894DEBF0FBECDBF60E821
:1001400086E290E00E94850060E886E290E00E94EE
:100150008A008FE0E2E3F1E0DE01119601900D925A
:100160008A95E1F740E855E260E070E088EC90E0C5
:100170000E941B010E945101DC019EE0E4E2F1E0DB
:1001800001900D929A95E1F70E94510140E0BC0167
:1001900088EC90E00E947A010E94510142E0BC018B
:1001A000CE0101960E94540140E0BE016F5F7F4F77
:1001B00088EC90E00E947A0184E2E0E0F1E0DE0168
:1001C000509601900D928A95E1F70E94510142E00C
:1001D000BC01CE0140960E94540140E0BE01605F28
:1001E0007F4F88EC90E00E947A0188EC90E00E94BA
:1001F0004B01682F88EC90E00E94440160E886E2A1
:1002000090E00E948F002FEF81EE94E0215080401B
:100210009040E1F700C0000060E886E290E00E94B4
:100220008A002FEF87E893E1215080409040E1F76A
:1002300000C00000DACFCF93DF93EC011882DB011E
:10024000CA01880F991FAA1FBB1F880F991FAA1FD9
:10025000BB1F9C01AD01220F331F441F551F220FEE
:10026000331F441F551F60E074E284EF90E00E944A
:10027000A701215031093D832C8386E08A8388E1E0
:100280008983DF91CF910895FC01908195FFFDCF87
:10029000668380E00895FC0190819923ECF78681C4
:1002A000089582E491E00895CF93DF93DC0141113A
:1002B0001AC0242F30E0FD01E20FF31FE491EB019F
:1002C000C20FD31FE8834F5FE111F3CF0FC0292F77
:1002D00030E0FD01E20FF31FE491EB01C20FD31FE9
:1002E000E8839F5F01C090E0941788F3842FDF912B
:1002F000CF910895EF92FF920F931F93CF93DF93C7
:100300007C018B01D42F411118C0FB016081C0E03A
:1003100008C0C7010E944401CF5FF801EC0FF11D36
:1003200060816111F6CF0CC0F801EC0FF11D608106
:10033000C7010E944401CF5F01C0C0E0CD17A0F308
:10034000DF91CF911F910F91FF90EF900895A1E25F
:100350001A2EAA1BBB1BFD010DC0AA1FBB1FEE1F3F
:10036000FF1FA217B307E407F50720F0A21BB30B8A
:10037000E40BF50B661F771F881F991F1A9469F706
:1003800060957095809590959B01AC01BD01CF0162
:060390000895F894FFCF70
:10039600416C697361204C617A6172657661206196
:1003A6006E64204472657720536368756C746521AA
:1003B6000A0D000064756D6D79737472696E670A53
:1003C6000D0048656C6C6F20576F726C64210A0DC6
:0203D600000025
:00000001FF
