:100000000C9486020C94A3020C94A3020C94A302F9
:100010000C94A3020C94A3020C94A3020C94A302CC
:100020000C94A3020C94A3020C94A3020C94A302BC
:100030000C94A3020C94A3020C94A3020C94A302AC
:100040000C94A3020C94A3020C94A3020C94A3029C
:100050000C94A3020C94A3020C94A3020C94A3028C
:100060000C94A3020C94A3020C94A3020C94A3027C
:100070000C94A3020C94A3020C94A3020C94A3026C
:100080000C94A3020C94A3020C94A3020C94A3025C
:100090000C94A3020C94A3020C94A3020C94A3024C
:1000A0000C94A3020C94A3020C94A3020C94A3023C
:1000B0000C94A3020C94A3020C94A3020C94A3022C
:1000C0000C94A3020C94A3020C94A3025374616ECB
:1000D00064617264204361706163697479000048EF
:1000E000696768204361706163697479000020204A
:1000F0004F4B210A0D0000456E74657220626C6FD3
:10010000636B20233A2000534420496E697469616F
:100110006C697A6174696F6E2050726F6772616D7D
:100120000A0D00AED580A81FD300408D14A1C8DAF7
:1001300002818FD9F1DB40A4A6AFFF0000000000D0
:1001400000000000000000000000000000000000AF
:10015000000000000000000000000000000000009F
:10016000000000000000000000000000000000008F
:10017000000000000000000000000000000000007F
:10018000000000000000000000000000FE7C38803D
:1001900080387CFE000C14000C14140C00140C8825
:1001A000CCEECC882266EE6622387C7C7C382070CF
:1001B000A8203E0804FE04082040FE4020101054F1
:1001C00038101038541010808894A28080A294882F
:1001D0008040707C7040041C7C1C04000000000007
:1001E00000009E0000000E000E0028FE28FE284899
:1001F00052FE5222462610C8C46C92AA44A0000A9D
:100200000600000038448200008244380028107C38
:10021000102810107C101000A030000010101010DA
:100220001000C0C0000040201008047CA2928A7C0C
:100230000084FE800084C2A2928C42828A96623040
:100240002824FE204E8A8A8A72789492926006024E
:10025000E2120E6C9292926C0C9292523C006C6C78
:10026000000000AC6C0000102844820028282828D8
:100270002800824428100402A2120C6492F2827CAC
:10028000F8242224F8FE9292926C7C82828244FEB0
:1002900082824438FE92929282FE121212027C8274
:1002A0009292F4FE101010FE0082FE8200408082C6
:1002B0007E02FE10284482FE80808080FE041804A6
:1002C000FEFE081020FE7C8282827CFE1212120C3E
:1002D0007C82A242BCFE1232528C4C9292926402F8
:1002E00002FE02027E8080807E3E4080403E7E8014
:1002F00070807EC6281028C60E10E0100EC2A29292
:100300008A8600FE8282000408102040008282FE5D
:100310000008040204088080808080000204080035
:1003200040A8A8A8F0FE90888870708888884070DF
:10033000888890FE70A8A8A83010FC12020410A8AB
:10034000A8A878FE100808F00090FA800040808885
:100350007A00FE205088000082FE8000F808F00835
:10036000F0F8100808F07088888870F8282828109D
:1003700010282830F8F81008081090A8A8A84008FD
:100380007E88804078808040F8384080403878808F
:10039000608078885020508818A0A0A07888C8A8CD
:1003A000988800106C82000000FE000000826C1033
:1003B000002010102010416464722E204F66667376
:1003C000657420202030202031202032202033204E
:1003D00020342020352020362020372020382020AF
:1003E0003920204120204220204320204420204545
:1003F0002020460A0D00426C6F636B2073697A659A
:100400002073657420746F203531322062797465F1
:10041000730A0D00486967682043617061636974FD
:100420007920436172642064657465637465642E29
:100430000A0D005374616E646172642043617061DF
:1004400063697479204361726420646574656374C0
:1004500065642E0A0D0056657273696F6E20322036
:1004600053442043617264206465746563746564F9
:100470002E0A0D0056657273696F6E203120534449
:1004800020436172642064657465637465642E0A38
:100490000D00526573706F6E7365203D20004143FF
:1004A0004D4434312073656E74202E2E2E2000436F
:1004B0004D4435382073656E74202E2E2E20004357
:1004C0004D4431362073656E74202E2E2E2000434D
:1004D0004D44382073656E74202E2E2E2000434D1F
:1004E00044302073656E74202E2E2E20005344203D
:1004F0004361726420496E697469616C697A6174E0
:10050000696F6E202E2E2E200A0D000011241FBEB2
:10051000CFEFD8E0DEBFCDBF11E0A0E0B1E0ECE06E
:10052000F6E202C005900D92AE32B107D9F725E090
:10053000AEE2B1E001C01D92A83BB207E1F70E9414
:1005400064030C9404130C940000FC012181622BC1
:1005500061830895411105C0FC012281262B22836D
:1005600006C0FC012281362F3095232322830E946E
:10057000A5020895411106C0FC0122816095622305
:1005800062830895FC012281622B628308954111E8
:1005900005C0FC012281622B62830895FC01228147
:1005A00060956223628308958F929F92AF92BF926B
:1005B000EF92FF920F931F93CF93DF93CDB7DEB7E8
:1005C0002B970FB6F894DEBF0FBECDBF7C0180E045
:1005D00008C0E1E0F0E0EC0FFD1FE80FF11D108214
:1005E0008F5F8B30B0F388248A94982C540100E0FC
:1005F000C7010E94460F182F80ED810F8A3068F4E2
:10060000612FC7010E94340FE1E0F0E0EC0FFD1F05
:10061000E00FF11D10830F5F2DC0183011F01F3750
:10062000A9F40150E1E0F0E0EC0FFD1FE00FF11D37
:10063000108268E0C7010E94340F60E2C7010E9487
:10064000340F68E0C7010E94340F14C01D3021F040
:100650001A3011F01E3271F4CE0101960E94DE0FA5
:100660004B015C016DE0C7010E94340F6AE0C701D5
:100670000E94340F0A3071F4CE0101960E94DE0F01
:100680004B015C016DE0C7010E94340F6AE0C701B5
:100690000E94340F8FEF88169806A806B80609F452
:1006A000A7CFC501B4012B960FB6F894DEBF0FBEDD
:1006B000CDBFDF91CF911F910F91FF90EF90BF9031
:1006C000AF909F908F900895CF93DF93CDB7DEB713
:1006D000C651D2400FB6F894DEBF0FBECDBF40E08A
:1006E00060E886E290E00E94C70240E060E886E2AF
:1006F00090E00E94AA0240E068E083E290E00E945D
:10070000C70240E068E083E290E00E94AA0240E075
:1007100060E18CE290E00E94C70240E060E18CE280
:1007200090E00E94AA0240E060E880E290E00E942F
:10073000C70240E060E880E290E00E94AA0240E840
:1007400055E260E070E088EC90E00E94FD0E0E94AF
:100750004C0F182F092F40E0682F792F87E091E088
:100760000E944F0F40E0612F702F88EC90E00E94B4
:10077000750F40E060E886E290E00E94BA022FEF39
:1007800081EE94E0215080409040E1F700C00000ED
:1007900040E060E886E290E00E94C70260E183E208
:1007A00090E00E949E0660E183E290E00E94A7062E
:1007B0000E94CC0440E85AE166E070E08CE490E0EE
:1007C0000E94330E8111FFCF8CE490E00E947105EE
:1007D00060EB8CE490E00E94DF0440E0612F702F1A
:1007E00087E091E00E944F0F47E0612F702F8CE46B
:1007F00090E00E94BD050E9402088111FFCF40E8F1
:1008000056E968E970E08CE490E00E94330E40E025
:10081000612F702F8EEE90E00E944F0F45E0612F08
:10082000702F8CE490E00E94BD0561EB8CE490E0B9
:100830000E94DF040E94100C893079F440E0612F9F
:10084000702F8CEC90E00E944F0F40E0612F702FD2
:100850008CE490E00E94BD050EC040E0612F702F37
:100860008FED90E00E944F0F40E0612F702F8CE4DD
:1008700090E00E94BD0540E060E886E290E00E94C2
:10088000C702BE016F5F7F4FCE018F5F9D4F0E94F9
:10089000880C40E0612F702F87EF90E00E944F0F8F
:1008A00040E0612F702F88EC90E00E94750F88EC7B
:1008B00090E00E94D4026B017C01FF92EF92DF92E4
:1008C0006F9388E091E09F938F930F931F930E9403
:1008D0001A1040E0612F702F88EC90E00E94750F95
:1008E0000E94100C04C0CC0CDD1CEE1CFF1C8A9571
:1008F000D2F740E060E886E290E00E94BA0260E150
:1009000083E290E00E94A106B701A60181E10E9466
:10091000AC0668EB71E080E092E00E946C0740E07A
:1009200060E886E290E00E94C70260E183E290E026
:100930000E94A70660E072E088EB91E00E947606D4
:100940000FB6F894DEBF0FBECDBFA3CF8BB18068CA
:100950008BB960E889E290E00E94A50208958111B8
:1009600004C08BB18F778BB908958BB180688BB938
:10097000089582B1806482B960E480E290E00E94D0
:10098000A5020895811104C082B18F7B82B90895B8
:1009900082B1806482B9089585B1816085B961E0D2
:1009A00083E290E00E94A5020895811104C085B100
:1009B0008E7F85B9089585B1816085B908951F93AB
:1009C000CF93DF93EC01162F80E00E94C20480E0F9
:1009D0000E94D504612FCE010E94CB0E81E00E94BF
:1009E000D50480E00E94D50460E0CE010E94CB0EC9
:1009F00081E00E94D50480E00E94D50460E1CE0130
:100A00000E94CB0E81E00E94D504DF91CF911F910F
:100A10000895FF920F931F93CF93DF938C01F62ECF
:100A200081E00E94C204D0E019C08F2D90E0FC014B
:100A3000EE0FFF1FEE0FFF1FE80FF91FED0FF11D67
:100A4000E55CFE4FC49180E00E94D5046C2FC80184
:100A50000E94CB0E81E00E94D504DF5FD53028F3E1
:100A600080E00E94D50460E0C8010E94CB0E81E0C6
:100A70000E94D504DF91CF911F910F91FF900895AF
:100A80000F931F93CF938C010E94DF0481E00E949B
:100A9000C204C0E00BC080E00E94D50460E0C80141
:100AA0000E94CB0E81E00E94D504CF5FCC239CF73F
:100AB000CF911F910F910895CF93DF93EC0160EBDD
:100AC0000E94400561EBCE010E94400562EBCE0121
:100AD0000E94400563EBCE010E944005DF91CF915B
:100AE0000895EF92FF920F931F93CF937C010E9482
:100AF000A6040E94B9040E94CC0480E00E94AF04C6
:100B000080E090E001C00196843F21E09207D8F395
:100B100081E00E94AF0480E00E94C204E3E2F1E0C1
:100B2000C49100E010E010C080E00E94D5046C2F5A
:100B3000C7010E94CB0E81E00E94D5040F5F1F4FBA
:100B4000F801ED5DFE4FC491CF3F71F780E00E9448
:100B5000D50460E4C7010E94CB0E81E00E94D50459
:100B6000C7010E945C0560EBC7010E94DF04CF91C2
:100B70001F910F91FF90EF900895EF92FF920F93C6
:100B80001F93CF93DF937C018B01D42F411120C0A1
:100B9000FB016081C0E00CC060311CF0C7010E9405
:100BA0000905CF5FF801EC0FF11DC7FDFA956081D3
:100BB0006111F2CF17C0F801EC0FF11DC7FDFA95D6
:100BC000608160311CF0C7010E940905CF5F01C040
:100BD000C0E02D2F30E08C2F0C2E000C990B8217CB
:100BE00093074CF3DF91CF911F910F91FF90EF90FE
:100BF0000895CF92DF92FF920F931F93CF93DF93CD
:100C00008C016B010E944C0FF82ED92F0C0D1D1D6D
:100C10001F930F9380E191E09F938F93DF93FF9257
:100C20000E941A1040E06F2D7D2F88EC90E00E940A
:100C3000750FDF92CF9284E191E09F938F93DF93C2
:100C4000FF920E941A1040E06F2D7D2F88EC90E0FB
:100C50000E94750F8DB79EB70C960FB6F8949EBF85
:100C60000FBE8DBFC0E01CC0F801EC0FF11D8081EC
:100C70001F928F932EE131E03F932F93DF93FF92EA
:100C80000E941A1040E06F2D7D2F88EC90E00E94AA
:100C9000750FCF5F0F900F900F900F900F900F90E8
:100CA000C03110F3C0E00EC0F801EC0FF11D6081FF
:100CB00080EE860F803608F06EE288EC90E00E94AD
:100CC000340FCF5FC03180F36DE088EC90E00E947C
:100CD000340F6AE088EC90E00E94340FDF91CF91EE
:100CE0001F910F91FF90DF90CF900895EF92FF92A8
:100CF0000F931F93CF93DF937C018B010E944C0FC6
:100D0000EC0140E0BC0186EB93E00E944F0F40E015
:100D1000BE0188EC90E00E94750FC0E0D0E0BE01FB
:100D2000C7010E94F9056096C017D107C0F3DF9193
:100D3000CF911F910F91FF90EF9008950E94A5020F
:100D40000895FC0192816095692362830895FC01F6
:100D50009281692B62830895CF92DF92EF92FF9286
:100D6000CF93DF93D82F6A017B01803408F054C001
:100D7000682F60648CE490E00E94CB0E81110AC061
:100D80006F2D7727882799278CE490E00E94CB0E5F
:100D9000C0E001C0C7E8C1110BC081110BC0FF2426
:100DA000B701882799278CE490E00E94CB0E03C0FE
:100DB000C7E801C0C7E8C1110DC081110DC0EE2404
:100DC000FF2499278F2D7E2D6D2D8CE490E00E94BD
:100DD000CB0E03C0C7E801C0C7E8C11108C081112C
:100DE00008C06C2D8CE490E00E94CB0E03C0C7E8D5
:100DF00001C0C7E8C11111C081110FC0DD2321F06E
:100E0000D83021F467E803C065E901C061E08CE4F3
:100E100090E00E94CB0E01C0C2E88C2FDF91CF91F1
:100E2000FF90EF90DF90CF900895DF92EF92FF92C6
:100E30000F931F93CF93DF931F92CDB7DEB7D82EBA
:100E40007B0110E0AE014F5F5F4F6FEF8CE490E0ED
:100E50000E94E10E082F1F5F8981882324F0982FBC
:100E60009F709F3021F4112311F0002359F30111D9
:100E700021C01123E1F0F701808389818230C8F419
:100E8000F1E0FD1580F016C0AE014F5F5F4F6FEFD0
:100E90008CE490E00E94E10EF701E10FF11D8981E1
:100EA00080831F5F01C011E01D1570F303C001E8CE
:100EB00001C003E8AE014F5F5F4F6FEF8CE490E03D
:100EC0000E94E10E802F0F90DF91CF911F910F9123
:100ED000FF90EF90DF900895AF92BF92CF92DF9294
:100EE000FF920F931F93CF93DF931F92CDB7DEB77F
:100EF0006C015B0100E010E0AE014F5F5F4F6FEFF0
:100F00008CE490E00E94E10EF82E0F5F1F4F898164
:100F100088232CF40115110511F0FF2069F3F1105D
:100F20005DC0012B09F447C081114AC000E010E008
:100F3000AE014F5F5F4F6FEF8CE490E00E94E10ED7
:100F40000F5F1F4F99819F3F29F40115110511F083
:100F5000882371F3811139C0012BE1F19E3FA9F083
:100F60000F2EF4E8FF2EF02D39C0AE014F5F5F4F1A
:100F70006FEF8CE490E00E94E10EF501E00FF11FAD
:100F8000898180830F5F1F4F02C000E010E00C15C5
:100F90001D0558F3AE014F5F5F4F6FEF8CE490E09B
:100FA0000E94E10EAE014F5F5F4F6FEF8CE490E067
:100FB0000E94E10E13C00F2EF1E8FF2EF02D0EC09F
:100FC0000F2EF3E8FF2EF02D09C00F2EF7E8FF2EAD
:100FD000F02D04C00F2EF8E8FF2EF02DAE014F5F6C
:100FE0005F4F6FEF8CE490E00E94E10E8F2D0F9029
:100FF000DF91CF911F910F91FF90DF90CF90BF9025
:10100000AF9008954F925F926F927F929F92AF92AE
:10101000BF92CF92DF92EF92FF920F931F93CF93E5
:10102000DF93CDB7DEB729970FB6F894DEBF0FBEBA
:10103000CDBF88E0E0E0F1E0DE01129601900D9274
:101040008A95E1F70E944C0FB82EE92E8FEF80931E
:101050002E0140E060E886E290E00E94C70240E096
:1010600060E886E290E00E94AA0240E060E880E248
:1010700090E00E94C70240E060E880E290E00E94B9
:10108000AA0260E183E290E00E94A70660E183E2A9
:1010900090E00E949E0640E06B2D7E2D8DEE94E048
:1010A0000E944F0F40E06B2D7E2D88EC90E00E9457
:1010B000750F40E06B2D7E2D8EED94E00E944F0F5A
:1010C00040E06B2D7E2D88EC90E00E94750FC12CC6
:1010D000D12C0F2EF1E8AF2EF02D912C60E183E2A0
:1010E00090E00E94A70600E010E008C06FEF8CE4DB
:1010F00090E00E94CB0E89830F5F1F4F0A301105CD
:10110000A8F340E060E886E290E00E94BA0260E165
:1011100083E290E00E94A10640E050E0BA0180E046
:101120000E94AC06F82E811113C0BE016E5F7F4F86
:1011300081E00E941507A82E60E183E290E00E9402
:10114000A70640E060E886E290E00E94C70211C076
:1011500060E183E290E00E94A70640E060E886E25A
:1011600090E00E94C70240E060E880E290E00E94C8
:10117000BA028A818130E9F060E183E290E00E9466
:10118000A10600E010E00BC0AE014F5F5F4F6FEFB4
:101190008CE490E00E94E10EF82E0F5F1F4F0231A9
:1011A00082E0180788F360E183E290E00E94A706DE
:1011B00001C0912C8FEFC81AD80AA1109A2C8AE08E
:1011C000C816D10410F4911089CF8AE0C816D10452
:1011D00041F40F2EF3E8AF2EF02D0F2EF3E89F2EE3
:1011E000F02DF11001C0F92CF110BCC040E060E816
:1011F00086E290E00E94BA0240E06B2D7E2D8FECDB
:1012000094E00E944F0F40E06B2D7E2D88EC90E023
:101210000E94750F60E183E290E00E94A1064AEA15
:1012200051E060E070E088E00E94AC06811151C09E
:10123000BE016E5F7F4F85E00E941507A82E60E11A
:1012400083E290E00E94A70640E060E886E290E03A
:101250000E94C70240E06B2D7E2D82E994E00E943F
:101260004F0F40E06B2D7E2D88EC90E00E94750FB3
:1012700000E010E020C0E2E0F0E0EC0FFD1FE00F26
:10128000F11F80811F928F938EE191E09F938F9346
:10129000EF92BF920E941A1040E06B2D7E2D88ECD9
:1012A00090E00E94750F0F5F1F4F0F900F900F90EF
:1012B0000F900F900F9005301105E8F26DE088EC6B
:1012C00090E00E94340F6AE088EC90E00E94340FB6
:1012D00011C060E183E290E00E94A70640E060E870
:1012E00086E290E00E94C70240E060E880E290E081
:1012F0000E94BA02AA2019F182E8A81232C089E03D
:1013000080932E0140E06B2D7E2D84E794E00E94B7
:101310004F0F40E06B2D7E2D88EC90E00E94750F02
:1013200040E06B2D7E2D83E394E00E944F0F40E060
:101330006B2D7E2D88EC90E00E94750F13C082E02B
:1013400080932E0140E06B2D7E2D86E594E00E9477
:101350004F0F40E06B2D7E2D88EC90E00E94750FC2
:1013600001C0FA2CF1108EC040E060E886E290E007
:101370000E94BA0240E06B2D7E2D8FEA94E00E941D
:101380004F0F40E06B2D7E2D88EC90E00E94750F92
:1013900060E183E290E00E94A10640E050E0BA01E3
:1013A0008AE30E94AC06D82E811154C0BE016E5F44
:1013B0007F4F85E00E94150760E183E290E00E9484
:1013C000A70640E060E886E290E00E94C70240E0A5
:1013D0006B2D7E2D82E994E00E944F0F40E06B2D33
:1013E0007E2D88EC90E00E94750F00E010E020C098
:1013F000E2E0F0E0EC0FFD1FE00FF11F80811F9293
:101400008F938EE191E09F938F93EF92BF920E9412
:101410001A1040E06B2D7E2D88EC90E00E94750F35
:101420000F5F1F4F0F900F900F900F900F900F9026
:1014300005301105E8F26DE088EC90E00E94340F71
:101440006AE088EC90E00E94340F8C818C7F8C3FA6
:1014500099F416C060E183E290E00E94A70640E0A4
:1014600060E886E290E00E94C70240E060E880E227
:1014700090E00E94BA0204C00F2EF5E8DF2EF02D96
:10148000D110FD2CF11094C080912E01823031F4E6
:10149000412C512C3201689476F803C0412C512C18
:1014A000320140E060E886E290E00E94BA0240E04B
:1014B0006B2D7E2D8EE994E00E944F0F40E06B2D46
:1014C0007E2D88EC90E00E94750FC12CD12C60E13C
:1014D00083E290E00E94A10640E050E0BA0187E379
:1014E0000E94AC06182F811106C0BE016E5F7F4FAF
:1014F00081E00E9415078A81823030F4B301A20195
:1015000089E20E94AC06182F111106C0BE016E5F61
:101510007F4F81E00E94150760E183E290E00E9426
:10152000A7068FEFC81AD80A09F419E58A8180FF47
:1015300002C0112361F211112DC040E060E886E283
:1015400090E00E94C70240E06B2D7E2D82E994E07E
:101550000E944F0F40E06B2D7E2D88EC90E00E94A2
:10156000750F8A811F928F9385E291E09F938F93ED
:10157000EF92BF920E941A1040E06B2D7E2D88ECF6
:1015800090E00E94750F0F900F900F900F900F90AA
:101590000F900CC040E060E886E290E00E94C70235
:1015A00040E060E880E290E00E94BA021111F12E62
:1015B000F1101FC180912E01823009F01AC140E064
:1015C00060E886E290E00E94BA0240E06B2D7E2D3A
:1015D0008FEA94E00E944F0F40E06B2D7E2D88EC47
:1015E00090E00E94750F60E183E290E00E94A10606
:1015F00040E050E0BA018AE30E94AC06182F811146
:10160000E3C0BE016E5F7F4F85E00E94150760E179
:1016100083E290E00E94A70640E060E886E290E066
:101620000E94C70240E06B2D7E2D82E994E00E946B
:101630004F0F40E06B2D7E2D88EC90E00E94750FDF
:10164000C12CD12C21C0E2E0F0E0EC0FFD1FEC0D2D
:10165000FD1D80811F928F938EE191E09F938F9368
:10166000EF92BF920E941A1040E06B2D7E2D88EC05
:1016700090E00E94750F8FEFC81AD80A0F900F9054
:101680000F900F900F900F9085E0C816D104D8F2FC
:101690006DE088EC90E00E94340F6AE088EC90E006
:1016A0000E94340F8B8188230CF0A0C0807C803C8A
:1016B00089F410922E0140E06B2D7E2D84E194E0A0
:1016C0000E944F0F40E06B2D7E2D88EC90E00E9431
:1016D000750F8DC089E080932E0140E06B2D7E2D2B
:1016E00083E394E00E944F0F40E06B2D7E2D88EC49
:1016F00090E00E94750F40E060E886E290E00E9472
:10170000BA0240E06B2D7E2D8FEB94E00E944F0FCC
:1017100040E06B2D7E2D88EC90E00E94750F60E11B
:1017200083E290E00E94A10640E052E060E070E0B9
:1017300080E10E94AC06182F811159C0BE016E5F76
:101740007F4F81E00E94150760E183E290E00E94F4
:10175000A70640E060E886E290E00E94C70240E011
:101760006B2D7E2D82E994E00E944F0F40E06B2D9F
:101770007E2D88EC90E00E94750F8A811F928F93D6
:1017800085E291E09F938F93EF92BF920E941A108F
:1017900040E06B2D7E2D88EC90E00E94750F40E0BC
:1017A0006B2D7E2D86EF93E00E944F0F40E06B2D56
:1017B0007E2D88EC90E00E94750F0F900F900F9097
:1017C0000F900F900F9013C060E183E290E00E94B1
:1017D000A70640E060E886E290E00E94C70240E091
:1017E00060E880E290E00E94BA0201C016E81111A0
:1017F000F12E8F2D29960FB6F894DEBF0FBECDBF08
:10180000DF91CF911F910F91FF90EF90DF90CF90DC
:10181000BF90AF909F907F906F905F904F90089592
:1018200080912E010895AF92BF92CF92DF92EF92F6
:10183000FF920F931F93CF936B017C018A01590193
:101840000E94100CC82F60E183E290E00E94A10684
:10185000B701A60104C0440F551F661F771FCA9524
:10186000D2F781E10E94AC06C82F811105C0B501F5
:10187000C8010E946C07C82F60E183E290E00E94DB
:10188000A706C111C0EF8C2FCF911F910F91FF9030
:10189000EF90DF90CF90BF90AF900895860F971F85
:1018A000FC0180810895DC019C012F5F3F4F80E0A7
:1018B00090E009C0982F8827FB01E20FF31F4081B9
:1018C000842B215031092A173B07A0F70895CF92A6
:1018D000DF92EF92FF929C01AB01A0E060E070E02C
:1018E000CB010FC0F901EA1BF1093396E40FF51F94
:1018F000E081CC24D62EE72EF82EC701B6016E2B40
:10190000AF5FA43078F3FF90EF90DF90CF90089511
:101910002F923F924F925F926F927F928F929F92FF
:10192000AF92BF92CF92DF92EF92FF920F931F93ED
:10193000CF93DF9300D000D000D0CDB7DEB73C010D
:101940007E836D839B0140E052E060E070E0CB015C
:101950000E94130C6D817E8180E090E00E944E0C0D
:1019600080937F0180917F01883E39F180917F01D2
:10197000893E39F16D817E8186EC91E00E94670C91
:101980006B017C012D813E8140E052E00E94130CEE
:101990006D817E8180E090E00E944E0C90E0A0E09E
:1019A000B0E08B3E9105A105B10571F0893E91052E
:1019B000A105B10509F039C107C0C12CD12C7601B0
:1019C00003C0C12CD12C76016D817E8186E190E02F
:1019D0000E94530C8C016D817E8184E290E00E9414
:1019E000670C4B015C0160939F017093A001809391
:1019F000A1019093A201012B09F019C184E0D30148
:101A000011968C936D817E818BE090E00E94530C47
:101A1000F301958384836D817E818DE090E00E9447
:101A20004E0CD3018C931092B3011092B201F301CA
:101A3000128A138A148A158A6D817E8183E190E06F
:101A40000E94530C8C016D817E8180E290E00E94A7
:101A5000670C0115110559F020E030E00093A80152
:101A60001093A9012093AA013093AB010CC0DC01B3
:101A7000CB01AA27BB278093A8019093A901A0932B
:101A8000AA01B093AB016D817E818EE090E00E944F
:101A9000530C8C016D817E8180E190E00E944E0CA0
:101AA0008093A3012090A8013090A9014090AA0141
:101AB0005090AB01A091A30120919F013091A00112
:101AC0004091A1015091A201B0E00E94C40FAB016E
:101AD000BC01400F511F611D711D2091B201309159
:101AE000B301DB01CA01820F931FA11DB11D9C012F
:101AF000AD01D201C101821B930BA40BB50B8093E6
:101B0000AE019093AF01A093B001B093B1016D818C
:101B10007E818DE090E00E944E0C282F482E512CA3
:101B20006091AE017091AF018091B0019091B101CF
:101B300030E040E050E00E94A20F2093A4013093D7
:101B4000A5014093A6015093A7018091A401909113
:101B5000A501A091A601B091A701853F9F4FA105C6
:101B6000B10508F466C0C8018C0D9D1D9093AD01B0
:101B70008093AC018091AC019091AD01A0E0B0E008
:101B8000F30186879787A08BB18B8091A301409149
:101B9000B2015091B30190E0889D9001899D300D74
:101BA000989D300D1124020F131F040F151FC00E36
:101BB000D11ED0928801C0928701809187019091B7
:101BC0008801A0E0B0E082879387A487B5876D8104
:101BD0007E818CE290E00E94670C62507109469E03
:101BE0009001479E300D569E300D11248091870143
:101BF00090918801820F931FA0E0B0E08093B40120
:101C00009093B501A093B601B093B7018091B40150
:101C10009091B501A091B601B091B701F30186830F
:101C20009783A087B18780E005C080EF03C08FEB6A
:101C300001C08DEB26960FB6F894DEBF0FBECDBF68
:101C4000DF91CF911F910F91FF90EF90DF90CF9098
:101C5000BF90AF909F908F907F906F905F904F90CC
:101C60003F902F900895CF92DF92EF92FF921F93B3
:101C7000CF93DF93EC016A017B018C34910551F421
:101C800085B1806185B960E183E290E00E94A502A0
:101C900010E00EC08C3A910551F48BB180648BB981
:101CA00060E489E290E00E94A50210E001C01EE01D
:101CB00011113FC060E074E284EF90E0A70196014B
:101CC0000E94A20F223028F480E5888381E0898376
:101CD00030C0233021F480E5888319822AC08BEF3D
:101CE000820F833028F481E5888381E0898321C0D5
:101CF00087EF820F873020F481E58883198219C02D
:101D00008FEE820F8F3028F482E5888381E089830B
:101D100010C08FED820F8F3120F482E58883198205
:101D200008C021542F3320F483E58883198201C031
:101D30001FE0CC34D10589F485B1806285B960E2B9
:101D400083E290E00E94A50285B18F7785B960E8B3
:101D500083E290E00E94A50215C0CC3AD10589F437
:101D60008EB188608EB968E08CE290E00E94A50296
:101D70008BB18F778BB960E889E290E00E94A50271
:101D800001C01EE0812FDF91CF911F91FF90EF9056
:101D9000DF90CF900895FC01628320E030E09181D4
:101DA0002F5F3F4F99231CF021153105C1F7232BDD
:101DB00021F096FD04C080E0089580E8089580EC4D
:101DC0000895FC01628390E021819F5F222314F03B
:101DD0009111FACF992361F026FD05C08281FA01A5
:101DE000808380E008958FEFFA01808380EC08956E
:101DF0008FEFFA01808380E80895CF93DF93EC01A1
:101E0000DB01CA0180589B47A14EBF4F880F991F25
:101E1000AA1FBB1F880F991FAA1FBB1F880F991FDE
:101E2000AA1FBB1F440F551F661F771F440F551F66
:101E3000661F771F9A01AB01220F331F441F551FE6
:101E4000220F331F441F551FBC01CD010E94A20F5A
:101E5000215031093D832C83188286E08A8388E1F2
:101E60008983DF91CF910895FC0120E030E09081DB
:101E70002F5F3F4F95FD03C021153105C1F7232B7F
:101E800019F0668380E0089580E90895FC0190814F
:101E90009923ECF7868108958FE291E00895CF931E
:101EA000DF93DC0141111AC0242F30E0FD01E20F65
:101EB000F31FE491EB01C20FD31FE8834F5FE111E1
:101EC000F3CF0FC0292F30E0FD01E20FF31FE491A3
:101ED000EB01C20FD31FE8839F5F01C090E094170E
:101EE00088F3842FDF91CF910895EF92FF920F93A3
:101EF0001F93CF93DF937C018B01D42F411118C026
:101F0000FB016081C0E008C0C7010E94340FCF5FB1
:101F1000F801EC0FF11D60816111F6CF0CC0F801E2
:101F2000EC0FF11D6081C7010E94340FCF5F01C02B
:101F3000C0E0CD17A0F3DF91CF911F910F91FF90DB
:101F4000EF900895A1E21A2EAA1BBB1BFD010DC044
:101F5000AA1FBB1FEE1FFF1FA217B307E407F50759
:101F600020F0A21BB30BE40BF50B661F771F881F35
:101F7000991F1A9469F760957095809590959B01CB
:101F8000AC01BD01CF0108950E94CF0FA59F900D18
:101F9000B49F900DA49F800D911D11240895A29FC0
:101FA000B001B39FC001A39F700D811D1124911D2D
:101FB000B29F700D811D1124911D08951F93FC0186
:101FC00099278827BC01E89411911032E9F3193060
:101FD00010F01E30C8F31B3251F01D3249F46894E2
:101FE00006C00E940510610F711D811D911D119188
:101FF00010531A30B0F33EF490958095709561952A
:102000007F4F8F4F9F4F1F910895592F482F372F84
:10201000262F660F771F881F991F660F771F881F4F
:10202000991F620F731F841F951F660F771F881FEC
:10203000991F0895AEE0B0E0E0E2F0E10C94DB120D
:102040000D891E8986E08C831A8309838FEF9FE7B1
:102050009E838D83AE01475E5F4F6F89788DCE0181
:1020600001960E943C10EF81F885E00FF11F10826D
:102070002E96E4E00C94F712ABE0B0E0E2E4F0E17D
:102080000C94CD126C017B018A01FC01178216822F
:10209000838181FFCCC1CE0101963C01F601938181
:1020A000F70193FD859193FF81917F01882309F4C6
:1020B000BAC1853239F493FD859193FF81917F01F7
:1020C000853229F4B60190E00E943312E7CF912CBB
:1020D000212C312CFFE1F315D8F08B3279F038F454
:1020E000803279F08332A1F4232D20611DC08D321E
:1020F00061F0803369F4232D216016C0832D826046
:10210000382EE32DE4603E2E2AC0F32DF8601DC06A
:1021100037FC2DC020ED280F2A3040F08E32B9F464
:1021200036FC81C1232D2064322E19C036FE06C034
:102130008AE0989E200D1124922E11C0EAE02E9E76
:10214000200D1124222EF32DF0623F2E08C08C3674
:1021500021F4832D8068382E02C0883641F4F701BF
:1021600093FD859193FF81917F018111B3CF982FCA
:102170009F7D9554933028F40C5F1F4F9FE3998304
:102180000DC0833631F0833771F0833509F059C0C3
:1021900021C0F801808189830E5F1F4F88248394BA
:1021A000912C530113C02801F2E04F0E511CF8018D
:1021B000A080B18036FE03C0692D70E002C06FEFD1
:1021C0007FEFC5010E9428124C018201F32DFF7799
:1021D0003F2E16C0280122E0420E511CF801A080BB
:1021E000B18036FE03C0692D70E002C06FEF7FEF53
:1021F000C5010E941D124C01F32DF0683F2E820193
:1022000033FC1BC0822D90E088169906B0F4B6010D
:1022100080E290E00E9433122A94F4CFF50137FC5B
:10222000859137FE81915F01B60190E00E943312E3
:1022300021102A9421E0821A91088114910471F7E7
:10224000E8C0843611F0893641F5F80137FE07C041
:1022500060817181828193810C5F1F4F08C0608112
:102260007181072E000C880B990B0E5F1F4FF32D09
:10227000FF763F2E97FF09C09095809570956195E8
:102280007F4F8F4F9F4FF0683F2E2AE030E0A30131
:102290000E946F12882E861845C0853731F4232D91
:1022A0002F7EB22E2AE030E025C0932D997FB92EE3
:1022B0008F36C1F018F4883579F0B5C0803719F041
:1022C000883721F0B0C0E92FE061BE2EB4FE0DC00A
:1022D000FB2DF460BF2E09C034FE0AC0292F2660F2
:1022E000B22E06C028E030E005C020E130E002C098
:1022F00020E132E0F801B7FE07C060817181828180
:1023000093810C5F1F4F06C06081718180E090E077
:102310000E5F1F4FA3010E946F12882E8618FB2D9F
:10232000FF773F2E36FE0DC0232D2E7FA22E89145F
:1023300058F434FE0BC032FC09C0832D8E7EA82ECB
:1023400005C0B82CA32C03C0B82C01C0B92CA4FE26
:102350000FC0FE01E80DF11D8081803321F49A2D1C
:10236000997EA92E09C0A2FE06C0B394B39404C0FE
:102370008A2D867809F0B394A3FC11C0A0FE06C094
:10238000B21488F4280C922C9B180EC0B21460F47E
:10239000B60180E290E00E943312B394F7CFB214FA
:1023A00018F42B1802C0982C212CA4FE10C0B601E2
:1023B00080E390E00E943312A2FE17C0A1FC03C08C
:1023C00088E790E002C088E590E0B6010CC08A2D55
:1023D000867859F0A1FE02C08BE201C080E2A7FC22
:1023E0008DE2B60190E00E943312891438F4B601F0
:1023F00080E390E00E9433129A94F7CF8A94F3011D
:10240000E80DF11D8081B60190E00E943312811029
:10241000F5CF222009F442CEB60180E290E00E947E
:1024200033122A94F6CFF6018681978102C08FEF8E
:102430009FEF2B96E2E10C94E912FC0105906150AC
:1024400070400110D8F7809590958E0F9F1F0895CA
:10245000FC016150704001900110D8F78095909573
:102460008E0F9F1F08950F931F93CF93DF93FB0150
:10247000238121FD03C08FEF9FEF2CC022FF16C0E8
:1024800046815781248135814217530744F4A08146
:10249000B1819D012F5F3F4F318320838C93268133
:1024A00037812F5F3F4F3783268314C08B01EC01A8
:1024B000FB010084F185E02D0995892BE1F6D80117
:1024C00016968D919C911797019617969C938E93D3
:1024D0001697CE01DF91CF911F910F910895FA01C8
:1024E000AA27283051F1203181F1E8946F936E7F53
:1024F0006E5F7F4F8F4F9F4FAF4FB1E03ED0B4E044
:102500003CD0670F781F891F9A1FA11D680F791F84
:102510008A1F911DA11D6A0F711D811D911DA11D95
:1025200020D009F468943F912AE0269F11243019A5
:10253000305D3193DEF6CF010895462F4770405D40
:102540004193B3E00FD0C9F7F6CF462F4F70405DEF
:102550004A3318F0495D31FD4052419302D0A9F74A
:10256000EACFB4E0A6959795879577956795BA9544
:10257000C9F700976105710508959B01AC010A2E0A
:1025800006945795479537952795BA95C9F7620FE1
:10259000731F841F951FA01D08952F923F924F9285
:1025A0005F926F927F928F929F92AF92BF92CF92E3
:1025B000DF92EF92FF920F931F93CF93DF93CDB7EC
:1025C000DEB7CA1BDB0B0FB6F894DEBF0FBECDBF64
:1025D00009942A88398848885F846E847D848C8435
:1025E0009B84AA84B984C884DF80EE80FD800C813E
:1025F0001B81AA81B981CE0FD11D0FB6F894DEBF21
:0C2600000FBECDBFED010895F894FFCF90
:10260C00FFFFFFFFFFFFFFFF20256C75200A0D0069
:10261C0025702000307825342E34582020002532A7
:0E262C002E3258200025322E3258200A0D0082
:00000001FF
